{
  "abi": [
    {
      "inputs": [],
      "stateMutability": "nonpayable",
      "type": "constructor"
    },
    {
      "inputs": [],
      "name": "NotMinter",
      "type": "error"
    },
    {
      "inputs": [],
      "name": "NotRoleAdmin",
      "type": "error"
    },
    {
      "inputs": [],
      "name": "PermissionDenied",
      "type": "error"
    },
    {
      "anonymous": false,
      "inputs": [
        {
          "indexed": true,
          "internalType": "address",
          "name": "owner",
          "type": "address"
        },
        {
          "indexed": true,
          "internalType": "address",
          "name": "approved",
          "type": "address"
        },
        {
          "indexed": true,
          "internalType": "uint256",
          "name": "tokenId",
          "type": "uint256"
        }
      ],
      "name": "Approval",
      "type": "event"
    },
    {
      "anonymous": false,
      "inputs": [
        {
          "indexed": true,
          "internalType": "address",
          "name": "owner",
          "type": "address"
        },
        {
          "indexed": true,
          "internalType": "address",
          "name": "operator",
          "type": "address"
        },
        {
          "indexed": false,
          "internalType": "bool",
          "name": "approved",
          "type": "bool"
        }
      ],
      "name": "ApprovalForAll",
      "type": "event"
    },
    {
      "anonymous": false,
      "inputs": [
        {
          "indexed": true,
          "internalType": "address",
          "name": "from",
          "type": "address"
        },
        {
          "indexed": true,
          "internalType": "address",
          "name": "to",
          "type": "address"
        },
        {
          "indexed": true,
          "internalType": "uint256",
          "name": "tokenId",
          "type": "uint256"
        }
      ],
      "name": "Transfer",
      "type": "event"
    },
    {
      "inputs": [
        {
          "internalType": "address",
          "name": "to",
          "type": "address"
        },
        {
          "internalType": "uint256",
          "name": "tokenId",
          "type": "uint256"
        }
      ],
      "name": "approve",
      "outputs": [],
      "stateMutability": "nonpayable",
      "type": "function"
    },
    {
      "inputs": [
        {
          "internalType": "address",
          "name": "owner",
          "type": "address"
        }
      ],
      "name": "balanceOf",
      "outputs": [
        {
          "internalType": "uint256",
          "name": "",
          "type": "uint256"
        }
      ],
      "stateMutability": "view",
      "type": "function"
    },
    {
      "inputs": [
        {
          "internalType": "address",
          "name": "",
          "type": "address"
        },
        {
          "internalType": "uint256",
          "name": "_tokenId",
          "type": "uint256"
        },
        {
          "internalType": "bytes",
          "name": "",
          "type": "bytes"
        }
      ],
      "name": "burn",
      "outputs": [],
      "stateMutability": "nonpayable",
      "type": "function"
    },
    {
      "inputs": [
        {
          "internalType": "uint256",
          "name": "tokenId",
          "type": "uint256"
        }
      ],
      "name": "getApproved",
      "outputs": [
        {
          "internalType": "address",
          "name": "",
          "type": "address"
        }
      ],
      "stateMutability": "view",
      "type": "function"
    },
    {
      "inputs": [
        {
          "internalType": "bytes32",
          "name": "role",
          "type": "bytes32"
        },
        {
          "internalType": "address",
          "name": "account",
          "type": "address"
        }
      ],
      "name": "grantRole",
      "outputs": [],
      "stateMutability": "nonpayable",
      "type": "function"
    },
    {
      "inputs": [
        {
          "internalType": "bytes32",
          "name": "role",
          "type": "bytes32"
        },
        {
          "internalType": "address",
          "name": "account",
          "type": "address"
        }
      ],
      "name": "hasRole",
      "outputs": [
        {
          "internalType": "bool",
          "name": "",
          "type": "bool"
        }
      ],
      "stateMutability": "view",
      "type": "function"
    },
    {
      "inputs": [
        {
          "internalType": "address",
          "name": "owner",
          "type": "address"
        },
        {
          "internalType": "address",
          "name": "operator",
          "type": "address"
        }
      ],
      "name": "isApprovedForAll",
      "outputs": [
        {
          "internalType": "bool",
          "name": "",
          "type": "bool"
        }
      ],
      "stateMutability": "view",
      "type": "function"
    },
    {
      "inputs": [],
      "name": "name",
      "outputs": [
        {
          "internalType": "string",
          "name": "",
          "type": "string"
        }
      ],
      "stateMutability": "view",
      "type": "function"
    },
    {
      "inputs": [
        {
          "internalType": "uint256",
          "name": "tokenId",
          "type": "uint256"
        }
      ],
      "name": "ownerOf",
      "outputs": [
        {
          "internalType": "address",
          "name": "",
          "type": "address"
        }
      ],
      "stateMutability": "view",
      "type": "function"
    },
    {
      "inputs": [
        {
          "internalType": "bytes32",
          "name": "role",
          "type": "bytes32"
        },
        {
          "internalType": "address",
          "name": "account",
          "type": "address"
        }
      ],
      "name": "revokeRole",
      "outputs": [],
      "stateMutability": "nonpayable",
      "type": "function"
    },
    {
      "inputs": [
        {
          "internalType": "address",
          "name": "_to",
          "type": "address"
        },
        {
          "internalType": "uint256",
          "name": "_tokenId",
          "type": "uint256"
        },
        {
          "internalType": "bytes",
          "name": "_data",
          "type": "bytes"
        }
      ],
      "name": "safeMint",
      "outputs": [],
      "stateMutability": "nonpayable",
      "type": "function"
    },
    {
      "inputs": [
        {
          "internalType": "address",
          "name": "from",
          "type": "address"
        },
        {
          "internalType": "address",
          "name": "to",
          "type": "address"
        },
        {
          "internalType": "uint256",
          "name": "tokenId",
          "type": "uint256"
        }
      ],
      "name": "safeTransferFrom",
      "outputs": [],
      "stateMutability": "nonpayable",
      "type": "function"
    },
    {
      "inputs": [
        {
          "internalType": "address",
          "name": "from",
          "type": "address"
        },
        {
          "internalType": "address",
          "name": "to",
          "type": "address"
        },
        {
          "internalType": "uint256",
          "name": "tokenId",
          "type": "uint256"
        },
        {
          "internalType": "bytes",
          "name": "data",
          "type": "bytes"
        }
      ],
      "name": "safeTransferFrom",
      "outputs": [],
      "stateMutability": "nonpayable",
      "type": "function"
    },
    {
      "inputs": [
        {
          "internalType": "address",
          "name": "operator",
          "type": "address"
        },
        {
          "internalType": "bool",
          "name": "approved",
          "type": "bool"
        }
      ],
      "name": "setApprovalForAll",
      "outputs": [],
      "stateMutability": "nonpayable",
      "type": "function"
    },
    {
      "inputs": [
        {
          "internalType": "bytes4",
          "name": "interfaceId",
          "type": "bytes4"
        }
      ],
      "name": "supportsInterface",
      "outputs": [
        {
          "internalType": "bool",
          "name": "",
          "type": "bool"
        }
      ],
      "stateMutability": "view",
      "type": "function"
    },
    {
      "inputs": [],
      "name": "symbol",
      "outputs": [
        {
          "internalType": "string",
          "name": "",
          "type": "string"
        }
      ],
      "stateMutability": "view",
      "type": "function"
    },
    {
      "inputs": [
        {
          "internalType": "uint256",
          "name": "tokenId",
          "type": "uint256"
        }
      ],
      "name": "tokenURI",
      "outputs": [
        {
          "internalType": "string",
          "name": "",
          "type": "string"
        }
      ],
      "stateMutability": "view",
      "type": "function"
    },
    {
      "inputs": [
        {
          "internalType": "address",
          "name": "from",
          "type": "address"
        },
        {
          "internalType": "address",
          "name": "to",
          "type": "address"
        },
        {
          "internalType": "uint256",
          "name": "tokenId",
          "type": "uint256"
        }
      ],
      "name": "transferFrom",
      "outputs": [],
      "stateMutability": "nonpayable",
      "type": "function"
    }
  ],
  "bytecode": {
    "object": "0x60806040523480156200001157600080fd5b506040518060400160405280601981526020017f4d756c746920436861696e204e61746976652045524337323100000000000000815250604051806040016040528060048152602001631350d39560e21b8152508160009081620000769190620001ff565b506001620000858282620001ff565b50503360009081527f15e730a082bd931bd9f1fc81c9aa2c9308a74dbdf27de2bec5058a0e60fe64aa602090815260408083208054600160ff1991821681179092557f4e686283402f72de62620fd26e24e5a6c7bd1d6067c734dda678ed6e18ad6ab3845282852080548216831790557fc9597e0dd7b45d7b4c627952a921a5050cad933a06ad3e737ecde71f09857812845282852080548216831790557f30a921b2188042103ab7d696490f6fa125548bb0385c7319673533fb2dce7e5b90935292208054909116909117905550620002cb565b634e487b7160e01b600052604160045260246000fd5b600181811c908216806200018557607f821691505b602082108103620001a657634e487b7160e01b600052602260045260246000fd5b50919050565b601f821115620001fa57600081815260208120601f850160051c81016020861015620001d55750805b601f850160051c820191505b81811015620001f657828155600101620001e1565b5050505b505050565b81516001600160401b038111156200021b576200021b6200015a565b62000233816200022c845462000170565b84620001ac565b602080601f8311600181146200026b5760008415620002525750858301515b600019600386901b1c1916600185901b178555620001f6565b600085815260208120601f198616915b828110156200029c578886015182559484019460019091019084016200027b565b5085821015620002bb5787850151600019600388901b60f8161c191681555b5050505050600190811b01905550565b61181c80620002db6000396000f3fe608060405234801561001057600080fd5b50600436106101165760003560e01c806370a08231116100a2578063a22cb46511610071578063a22cb46514610246578063b88d4fde14610259578063c87b56dd1461026c578063d547741f1461027f578063e985e9c51461029257600080fd5b806370a08231146101f75780638832e6e31461021857806391d148541461022b57806395d89b411461023e57600080fd5b806323b872dd116100e957806323b872dd146101985780632f2ff15d146101ab57806342842e0e146101be57806344d17187146101d15780636352211e146101e457600080fd5b806301ffc9a71461011b57806306fdde0314610143578063081812fc14610158578063095ea7b314610183575b600080fd5b61012e6101293660046112c2565b6102ce565b60405190151581526020015b60405180910390f35b61014b6102f9565b60405161013a919061132f565b61016b610166366004611342565b61038b565b6040516001600160a01b03909116815260200161013a565b610196610191366004611377565b6103b2565b005b6101966101a63660046113a1565b6104cc565b6101966101b93660046113dd565b6104fd565b6101966101cc3660046113a1565b610567565b6101966101df366004611409565b610582565b61016b6101f2366004611342565b610631565b61020a610205366004611490565b610691565b60405190815260200161013a565b610196610226366004611409565b610717565b61012e6102393660046113dd565b6107e2565b61014b61080d565b6101966102543660046114ab565b61081c565b6101966102673660046114fd565b61082b565b61014b61027a366004611342565b61085d565b61019661028d3660046113dd565b6108d1565b61012e6102a03660046115d9565b6001600160a01b03918216600090815260056020908152604080832093909416825291909152205460ff1690565b60006301cbdea760e01b6001600160e01b0319831614806102f357506102f382610938565b92915050565b60606000805461030890611603565b80601f016020809104026020016040519081016040528092919081815260200182805461033490611603565b80156103815780601f1061035657610100808354040283529160200191610381565b820191906000526020600020905b81548152906001019060200180831161036457829003601f168201915b5050505050905090565b600061039682610988565b506000908152600460205260409020546001600160a01b031690565b60006103bd82610631565b9050806001600160a01b0316836001600160a01b03160361042f5760405162461bcd60e51b815260206004820152602160248201527f4552433732313a20617070726f76616c20746f2063757272656e74206f776e656044820152603960f91b60648201526084015b60405180910390fd5b336001600160a01b038216148061044b575061044b81336102a0565b6104bd5760405162461bcd60e51b815260206004820152603d60248201527f4552433732313a20617070726f76652063616c6c6572206973206e6f7420746f60448201527f6b656e206f776e6572206f7220617070726f76656420666f7220616c6c0000006064820152608401610426565b6104c783836109ea565b505050565b6104d63382610a58565b6104f25760405162461bcd60e51b81526004016104269061163d565b6104c7838383610ad7565b600082815260076020908152604080832033845290915290205460ff166105375760405163521128ff60e01b815260040160405180910390fd5b60009182526006602090815260408084206001600160a01b0390931684529190529020805460ff19166001179055565b6104c78383836040518060200160405280600081525061082b565b600061058e3385610a58565b3360009081527fc9597e0dd7b45d7b4c627952a921a5050cad933a06ad3e737ecde71f0985781260205260408120549192509060ff16806105f457506105f47fe7ba54b021ea26ee9c797c92a7485e5bb59d2b07365aae349635a1bf8d0bd7af336107e2565b905081158015610602575080155b1561062057604051630782484160e21b815260040160405180910390fd5b61062985610c48565b505050505050565b6000818152600260205260408120546001600160a01b0316806102f35760405162461bcd60e51b8152602060048201526018602482015277115490cdcc8c4e881a5b9d985b1a59081d1bdad95b88125160421b6044820152606401610426565b60006001600160a01b0382166106fb5760405162461bcd60e51b815260206004820152602960248201527f4552433732313a2061646472657373207a65726f206973206e6f7420612076616044820152683634b21037bbb732b960b91b6064820152608401610426565b506001600160a01b031660009081526003602052604090205490565b3360009081527f15e730a082bd931bd9f1fc81c9aa2c9308a74dbdf27de2bec5058a0e60fe64aa602052604090205460ff1615801561077d575061077b7f71c3f5d1e4abab6db588a0fd893947888ebf8abda567a125ca9d5845ef22dda5336107e2565b155b1561079b57604051633e34a41b60e21b815260040160405180910390fd5b6107dc848484848080601f016020809104026020016040519081016040528093929190818152602001838380828437600092019190915250610ceb92505050565b50505050565b60009182526006602090815260408084206001600160a01b0393909316845291905290205460ff1690565b60606001805461030890611603565b610827338383610d1e565b5050565b6108353383610a58565b6108515760405162461bcd60e51b81526004016104269061163d565b6107dc84848484610dec565b606061086882610988565b600061087f60408051602081019091526000815290565b9050600081511161089f57604051806020016040528060008152506108ca565b806108a984610e1f565b6040516020016108ba92919061168a565b6040516020818303038152906040525b9392505050565b600082815260076020908152604080832033845290915290205460ff1661090b5760405163521128ff60e01b815260040160405180910390fd5b60009182526006602090815260408084206001600160a01b0390931684529190529020805460ff19169055565b60006001600160e01b031982166380ac58cd60e01b148061096957506001600160e01b03198216635b5e139f60e01b145b806102f357506301ffc9a760e01b6001600160e01b03198316146102f3565b6000818152600260205260409020546001600160a01b03166109e75760405162461bcd60e51b8152602060048201526018602482015277115490cdcc8c4e881a5b9d985b1a59081d1bdad95b88125160421b6044820152606401610426565b50565b600081815260046020526040902080546001600160a01b0319166001600160a01b0384169081179091558190610a1f82610631565b6001600160a01b03167f8c5be1e5ebec7d5bd14f71427d1e84f3dd0314c0f7b2291e5b200ac8c7c3b92560405160405180910390a45050565b600080610a6483610631565b9050806001600160a01b0316846001600160a01b03161480610aab57506001600160a01b0380821660009081526005602090815260408083209388168352929052205460ff165b80610acf5750836001600160a01b0316610ac48461038b565b6001600160a01b0316145b949350505050565b826001600160a01b0316610aea82610631565b6001600160a01b031614610b105760405162461bcd60e51b8152600401610426906116b9565b6001600160a01b038216610b725760405162461bcd60e51b8152602060048201526024808201527f4552433732313a207472616e7366657220746f20746865207a65726f206164646044820152637265737360e01b6064820152608401610426565b610b7f8383836001610eb2565b826001600160a01b0316610b9282610631565b6001600160a01b031614610bb85760405162461bcd60e51b8152600401610426906116b9565b600081815260046020908152604080832080546001600160a01b03199081169091556001600160a01b0387811680865260038552838620805460001901905590871680865283862080546001019055868652600290945282852080549092168417909155905184937fddf252ad1be2c89b69c2b068fc378daa952ba7f163c4a11628f55a4df523b3ef91a4505050565b6000610c5382610631565b9050610c63816000846001610eb2565b610c6c82610631565b600083815260046020908152604080832080546001600160a01b03199081169091556001600160a01b0385168085526003845282852080546000190190558785526002909352818420805490911690555192935084927fddf252ad1be2c89b69c2b068fc378daa952ba7f163c4a11628f55a4df523b3ef908390a45050565b610cf58383610f3a565b610d0260008484846110d3565b6104c75760405162461bcd60e51b8152600401610426906116fe565b816001600160a01b0316836001600160a01b031603610d7f5760405162461bcd60e51b815260206004820152601960248201527f4552433732313a20617070726f766520746f2063616c6c6572000000000000006044820152606401610426565b6001600160a01b03838116600081815260056020908152604080832094871680845294825291829020805460ff191686151590811790915591519182527f17307eab39ab6107e8899845ad3d59bd9653f200f220920489ca2b5937696c31910160405180910390a3505050565b610df7848484610ad7565b610e03848484846110d3565b6107dc5760405162461bcd60e51b8152600401610426906116fe565b60606000610e2c836111d4565b600101905060008167ffffffffffffffff811115610e4c57610e4c6114e7565b6040519080825280601f01601f191660200182016040528015610e76576020820181803683370190505b5090508181016020015b600019016f181899199a1a9b1b9c1cb0b131b232b360811b600a86061a8153600a8504945084610e8057509392505050565b60018111156107dc576001600160a01b03841615610ef8576001600160a01b03841660009081526003602052604081208054839290610ef2908490611766565b90915550505b6001600160a01b038316156107dc576001600160a01b03831660009081526003602052604081208054839290610f2f908490611779565b909155505050505050565b6001600160a01b038216610f905760405162461bcd60e51b815260206004820181905260248201527f4552433732313a206d696e7420746f20746865207a65726f20616464726573736044820152606401610426565b6000818152600260205260409020546001600160a01b031615610ff55760405162461bcd60e51b815260206004820152601c60248201527f4552433732313a20746f6b656e20616c7265616479206d696e746564000000006044820152606401610426565b611003600083836001610eb2565b6000818152600260205260409020546001600160a01b0316156110685760405162461bcd60e51b815260206004820152601c60248201527f4552433732313a20746f6b656e20616c7265616479206d696e746564000000006044820152606401610426565b6001600160a01b038216600081815260036020908152604080832080546001019055848352600290915280822080546001600160a01b0319168417905551839291907fddf252ad1be2c89b69c2b068fc378daa952ba7f163c4a11628f55a4df523b3ef908290a45050565b60006001600160a01b0384163b156111c957604051630a85bd0160e11b81526001600160a01b0385169063150b7a029061111790339089908890889060040161178c565b6020604051808303816000875af1925050508015611152575060408051601f3d908101601f1916820190925261114f918101906117c9565b60015b6111af573d808015611180576040519150601f19603f3d011682016040523d82523d6000602084013e611185565b606091505b5080516000036111a75760405162461bcd60e51b8152600401610426906116fe565b805181602001fd5b6001600160e01b031916630a85bd0160e11b149050610acf565b506001949350505050565b60008072184f03e93ff9f4daa797ed6e38ed64bf6a1f0160401b83106112135772184f03e93ff9f4daa797ed6e38ed64bf6a1f0160401b830492506040015b6d04ee2d6d415b85acef8100000000831061123f576d04ee2d6d415b85acef8100000000830492506020015b662386f26fc10000831061125d57662386f26fc10000830492506010015b6305f5e1008310611275576305f5e100830492506008015b612710831061128957612710830492506004015b6064831061129b576064830492506002015b600a83106102f35760010192915050565b6001600160e01b0319811681146109e757600080fd5b6000602082840312156112d457600080fd5b81356108ca816112ac565b60005b838110156112fa5781810151838201526020016112e2565b50506000910152565b6000815180845261131b8160208601602086016112df565b601f01601f19169290920160200192915050565b6020815260006108ca6020830184611303565b60006020828403121561135457600080fd5b5035919050565b80356001600160a01b038116811461137257600080fd5b919050565b6000806040838503121561138a57600080fd5b6113938361135b565b946020939093013593505050565b6000806000606084860312156113b657600080fd5b6113bf8461135b565b92506113cd6020850161135b565b9150604084013590509250925092565b600080604083850312156113f057600080fd5b823591506114006020840161135b565b90509250929050565b6000806000806060858703121561141f57600080fd5b6114288561135b565b935060208501359250604085013567ffffffffffffffff8082111561144c57600080fd5b818701915087601f83011261146057600080fd5b81358181111561146f57600080fd5b88602082850101111561148157600080fd5b95989497505060200194505050565b6000602082840312156114a257600080fd5b6108ca8261135b565b600080604083850312156114be57600080fd5b6114c78361135b565b9150602083013580151581146114dc57600080fd5b809150509250929050565b634e487b7160e01b600052604160045260246000fd5b6000806000806080858703121561151357600080fd5b61151c8561135b565b935061152a6020860161135b565b925060408501359150606085013567ffffffffffffffff8082111561154e57600080fd5b818701915087601f83011261156257600080fd5b813581811115611574576115746114e7565b604051601f8201601f19908116603f0116810190838211818310171561159c5761159c6114e7565b816040528281528a60208487010111156115b557600080fd5b82602086016020830137600060208483010152809550505050505092959194509250565b600080604083850312156115ec57600080fd5b6115f58361135b565b91506114006020840161135b565b600181811c9082168061161757607f821691505b60208210810361163757634e487b7160e01b600052602260045260246000fd5b50919050565b6020808252602d908201527f4552433732313a2063616c6c6572206973206e6f7420746f6b656e206f776e6560408201526c1c881bdc88185c1c1c9bdd9959609a1b606082015260800190565b6000835161169c8184602088016112df565b8351908301906116b08183602088016112df565b01949350505050565b60208082526025908201527f4552433732313a207472616e736665722066726f6d20696e636f72726563742060408201526437bbb732b960d91b606082015260800190565b60208082526032908201527f4552433732313a207472616e7366657220746f206e6f6e20455243373231526560408201527131b2b4bb32b91034b6b83632b6b2b73a32b960711b606082015260800190565b634e487b7160e01b600052601160045260246000fd5b818103818111156102f3576102f3611750565b808201808211156102f3576102f3611750565b6001600160a01b03858116825284166020820152604081018390526080606082018190526000906117bf90830184611303565b9695505050505050565b6000602082840312156117db57600080fd5b81516108ca816112ac56fea264697066735822122031008e7a83462680cceb8f58b0761a9e51f9aed7b89108be220c605a9b51279964736f6c63430008110033",
    "linkReferences": {}
  },
  "methodIdentifiers": {
    "approve(address,uint256)": "095ea7b3",
    "balanceOf(address)": "70a08231",
    "burn(address,uint256,bytes)": "44d17187",
    "getApproved(uint256)": "081812fc",
    "grantRole(bytes32,address)": "2f2ff15d",
    "hasRole(bytes32,address)": "91d14854",
    "isApprovedForAll(address,address)": "e985e9c5",
    "name()": "06fdde03",
    "ownerOf(uint256)": "6352211e",
    "revokeRole(bytes32,address)": "d547741f",
    "safeMint(address,uint256,bytes)": "8832e6e3",
    "safeTransferFrom(address,address,uint256)": "42842e0e",
    "safeTransferFrom(address,address,uint256,bytes)": "b88d4fde",
    "setApprovalForAll(address,bool)": "a22cb465",
    "supportsInterface(bytes4)": "01ffc9a7",
    "symbol()": "95d89b41",
    "tokenURI(uint256)": "c87b56dd",
    "transferFrom(address,address,uint256)": "23b872dd"
  },
  "id": 11
}