{
  "abi": [
    {
      "inputs": [],
      "stateMutability": "nonpayable",
      "type": "constructor"
    },
    {
      "inputs": [],
      "name": "NotBurner",
      "type": "error"
    },
    {
      "inputs": [],
      "name": "NotMinter",
      "type": "error"
    },
    {
      "inputs": [],
      "name": "NotRoleAdmin",
      "type": "error"
    },
    {
      "anonymous": false,
      "inputs": [
        {
          "indexed": true,
          "internalType": "address",
          "name": "owner",
          "type": "address"
        },
        {
          "indexed": true,
          "internalType": "address",
          "name": "spender",
          "type": "address"
        },
        {
          "indexed": false,
          "internalType": "uint256",
          "name": "value",
          "type": "uint256"
        }
      ],
      "name": "Approval",
      "type": "event"
    },
    {
      "anonymous": false,
      "inputs": [
        {
          "indexed": true,
          "internalType": "address",
          "name": "from",
          "type": "address"
        },
        {
          "indexed": true,
          "internalType": "address",
          "name": "to",
          "type": "address"
        },
        {
          "indexed": false,
          "internalType": "uint256",
          "name": "value",
          "type": "uint256"
        }
      ],
      "name": "Transfer",
      "type": "event"
    },
    {
      "inputs": [
        {
          "internalType": "address",
          "name": "owner",
          "type": "address"
        },
        {
          "internalType": "address",
          "name": "spender",
          "type": "address"
        }
      ],
      "name": "allowance",
      "outputs": [
        {
          "internalType": "uint256",
          "name": "",
          "type": "uint256"
        }
      ],
      "stateMutability": "view",
      "type": "function"
    },
    {
      "inputs": [
        {
          "internalType": "address",
          "name": "spender",
          "type": "address"
        },
        {
          "internalType": "uint256",
          "name": "amount",
          "type": "uint256"
        }
      ],
      "name": "approve",
      "outputs": [
        {
          "internalType": "bool",
          "name": "",
          "type": "bool"
        }
      ],
      "stateMutability": "nonpayable",
      "type": "function"
    },
    {
      "inputs": [
        {
          "internalType": "address",
          "name": "account",
          "type": "address"
        }
      ],
      "name": "balanceOf",
      "outputs": [
        {
          "internalType": "uint256",
          "name": "",
          "type": "uint256"
        }
      ],
      "stateMutability": "view",
      "type": "function"
    },
    {
      "inputs": [
        {
          "internalType": "address",
          "name": "_from",
          "type": "address"
        },
        {
          "internalType": "uint256",
          "name": "_amount",
          "type": "uint256"
        },
        {
          "internalType": "bytes",
          "name": "",
          "type": "bytes"
        }
      ],
      "name": "burn",
      "outputs": [],
      "stateMutability": "nonpayable",
      "type": "function"
    },
    {
      "inputs": [],
      "name": "decimals",
      "outputs": [
        {
          "internalType": "uint8",
          "name": "",
          "type": "uint8"
        }
      ],
      "stateMutability": "view",
      "type": "function"
    },
    {
      "inputs": [
        {
          "internalType": "address",
          "name": "spender",
          "type": "address"
        },
        {
          "internalType": "uint256",
          "name": "subtractedValue",
          "type": "uint256"
        }
      ],
      "name": "decreaseAllowance",
      "outputs": [
        {
          "internalType": "bool",
          "name": "",
          "type": "bool"
        }
      ],
      "stateMutability": "nonpayable",
      "type": "function"
    },
    {
      "inputs": [
        {
          "internalType": "bytes32",
          "name": "role",
          "type": "bytes32"
        },
        {
          "internalType": "address",
          "name": "account",
          "type": "address"
        }
      ],
      "name": "grantRole",
      "outputs": [],
      "stateMutability": "nonpayable",
      "type": "function"
    },
    {
      "inputs": [
        {
          "internalType": "bytes32",
          "name": "role",
          "type": "bytes32"
        },
        {
          "internalType": "address",
          "name": "account",
          "type": "address"
        }
      ],
      "name": "hasRole",
      "outputs": [
        {
          "internalType": "bool",
          "name": "",
          "type": "bool"
        }
      ],
      "stateMutability": "view",
      "type": "function"
    },
    {
      "inputs": [
        {
          "internalType": "address",
          "name": "spender",
          "type": "address"
        },
        {
          "internalType": "uint256",
          "name": "addedValue",
          "type": "uint256"
        }
      ],
      "name": "increaseAllowance",
      "outputs": [
        {
          "internalType": "bool",
          "name": "",
          "type": "bool"
        }
      ],
      "stateMutability": "nonpayable",
      "type": "function"
    },
    {
      "inputs": [
        {
          "internalType": "address",
          "name": "_to",
          "type": "address"
        },
        {
          "internalType": "uint256",
          "name": "_amount",
          "type": "uint256"
        },
        {
          "internalType": "bytes",
          "name": "",
          "type": "bytes"
        }
      ],
      "name": "mint",
      "outputs": [],
      "stateMutability": "nonpayable",
      "type": "function"
    },
    {
      "inputs": [],
      "name": "name",
      "outputs": [
        {
          "internalType": "string",
          "name": "",
          "type": "string"
        }
      ],
      "stateMutability": "view",
      "type": "function"
    },
    {
      "inputs": [
        {
          "internalType": "bytes32",
          "name": "role",
          "type": "bytes32"
        },
        {
          "internalType": "address",
          "name": "account",
          "type": "address"
        }
      ],
      "name": "revokeRole",
      "outputs": [],
      "stateMutability": "nonpayable",
      "type": "function"
    },
    {
      "inputs": [
        {
          "internalType": "bytes4",
          "name": "interfaceId",
          "type": "bytes4"
        }
      ],
      "name": "supportsInterface",
      "outputs": [
        {
          "internalType": "bool",
          "name": "",
          "type": "bool"
        }
      ],
      "stateMutability": "view",
      "type": "function"
    },
    {
      "inputs": [],
      "name": "symbol",
      "outputs": [
        {
          "internalType": "string",
          "name": "",
          "type": "string"
        }
      ],
      "stateMutability": "view",
      "type": "function"
    },
    {
      "inputs": [],
      "name": "totalSupply",
      "outputs": [
        {
          "internalType": "uint256",
          "name": "",
          "type": "uint256"
        }
      ],
      "stateMutability": "view",
      "type": "function"
    },
    {
      "inputs": [
        {
          "internalType": "address",
          "name": "to",
          "type": "address"
        },
        {
          "internalType": "uint256",
          "name": "amount",
          "type": "uint256"
        }
      ],
      "name": "transfer",
      "outputs": [
        {
          "internalType": "bool",
          "name": "",
          "type": "bool"
        }
      ],
      "stateMutability": "nonpayable",
      "type": "function"
    },
    {
      "inputs": [
        {
          "internalType": "address",
          "name": "from",
          "type": "address"
        },
        {
          "internalType": "address",
          "name": "to",
          "type": "address"
        },
        {
          "internalType": "uint256",
          "name": "amount",
          "type": "uint256"
        }
      ],
      "name": "transferFrom",
      "outputs": [
        {
          "internalType": "bool",
          "name": "",
          "type": "bool"
        }
      ],
      "stateMutability": "nonpayable",
      "type": "function"
    }
  ],
  "bytecode": {
    "object": "0x60806040523480156200001157600080fd5b506040518060400160405280601e81526020017f4d756c746920436861696e204e617469766520455243323020544f6b656e0000815250604051806040016040528060048152602001631350d39560e21b81525081600390816200007691906200020e565b5060046200008582826200020e565b50506a084595161401484a000000600555503360009081527f15e730a082bd931bd9f1fc81c9aa2c9308a74dbdf27de2bec5058a0e60fe64aa602090815260408083208054600160ff1991821681179092557f4e686283402f72de62620fd26e24e5a6c7bd1d6067c734dda678ed6e18ad6ab3845282852080548216831790557fc9597e0dd7b45d7b4c627952a921a5050cad933a06ad3e737ecde71f09857812845282852080548216831790557f30a921b2188042103ab7d696490f6fa125548bb0385c7319673533fb2dce7e5b909352922080549091169091179055620002da565b634e487b7160e01b600052604160045260246000fd5b600181811c908216806200019457607f821691505b602082108103620001b557634e487b7160e01b600052602260045260246000fd5b50919050565b601f8211156200020957600081815260208120601f850160051c81016020861015620001e45750805b601f850160051c820191505b818110156200020557828155600101620001f0565b5050505b505050565b81516001600160401b038111156200022a576200022a62000169565b62000242816200023b84546200017f565b84620001bb565b602080601f8311600181146200027a5760008415620002615750858301515b600019600386901b1c1916600185901b17855562000205565b600085815260208120601f198616915b82811015620002ab578886015182559484019460019091019084016200028a565b5085821015620002ca5787850151600019600388901b60f8161c191681555b5050505050600190811b01905550565b610e2a80620002ea6000396000f3fe608060405234801561001057600080fd5b506004361061010b5760003560e01c806344d17187116100a257806395d89b411161007157806395d89b4114610244578063a457c2d71461024c578063a9059cbb1461025f578063d547741f14610272578063dd62ed3e1461028557600080fd5b806344d17187146101bc57806370a08231146101cf57806391d14854146101f857806394d008ef1461023157600080fd5b806323b872dd116100de57806323b872dd146101725780632f2ff15d14610185578063313ce5671461019a57806339509351146101a957600080fd5b806301ffc9a71461011057806306fdde0314610138578063095ea7b31461014d57806318160ddd14610160575b600080fd5b61012361011e366004610ba0565b610298565b60405190151581526020015b60405180910390f35b6101406102cf565b60405161012f9190610bd1565b61012361015b366004610c3b565b610361565b6005545b60405190815260200161012f565b610123610180366004610c65565b610379565b610198610193366004610ca1565b61039d565b005b6040516012815260200161012f565b6101236101b7366004610c3b565b610407565b6101986101ca366004610ccd565b610429565b6101646101dd366004610d54565b6001600160a01b031660009081526020819052604090205490565b610123610206366004610ca1565b60009182526006602090815260408084206001600160a01b0393909316845291905290205460ff1690565b61019861023f366004610ccd565b6104bd565b61014061054b565b61012361025a366004610c3b565b61055a565b61012361026d366004610c3b565b6105da565b610198610280366004610ca1565b6105e8565b610164610293366004610d6f565b61064f565b60006001600160e01b031982166301ffc9a760e01b14806102c957506301cbdea760e01b6001600160e01b03198316145b92915050565b6060600380546102de90610d99565b80601f016020809104026020016040519081016040528092919081815260200182805461030a90610d99565b80156103575780601f1061032c57610100808354040283529160200191610357565b820191906000526020600020905b81548152906001019060200180831161033a57829003601f168201915b5050505050905090565b60003361036f81858561067a565b5060019392505050565b60003361038785828561079f565b610392858585610813565b506001949350505050565b600082815260076020908152604080832033845290915290205460ff166103d75760405163521128ff60e01b815260040160405180910390fd5b60009182526006602090815260408084206001600160a01b0390931684529190529020805460ff19166001179055565b60003361036f81858561041a838361064f565b6104249190610dd3565b61067a565b3360009081527fc9597e0dd7b45d7b4c627952a921a5050cad933a06ad3e737ecde71f09857812602052604090205460ff1615801561048f575061048d7fe7ba54b021ea26ee9c797c92a7485e5bb59d2b07365aae349635a1bf8d0bd7af33610206565b155b156104ad5760405163f019b1af60e01b815260040160405180910390fd5b6104b784846109b7565b50505050565b3360009081527f15e730a082bd931bd9f1fc81c9aa2c9308a74dbdf27de2bec5058a0e60fe64aa602052604090205460ff1615801561052357506105217f71c3f5d1e4abab6db588a0fd893947888ebf8abda567a125ca9d5845ef22dda533610206565b155b1561054157604051633e34a41b60e21b815260040160405180910390fd5b6104b78484610ae1565b6060600480546102de90610d99565b60003381610568828661064f565b9050838110156105cd5760405162461bcd60e51b815260206004820152602560248201527f45524332303a2064656372656173656420616c6c6f77616e63652062656c6f77604482015264207a65726f60d81b60648201526084015b60405180910390fd5b610392828686840361067a565b60003361036f818585610813565b600082815260076020908152604080832033845290915290205460ff166106225760405163521128ff60e01b815260040160405180910390fd5b60009182526006602090815260408084206001600160a01b0390931684529190529020805460ff19169055565b6001600160a01b03918216600090815260016020908152604080832093909416825291909152205490565b6001600160a01b0383166106dc5760405162461bcd60e51b8152602060048201526024808201527f45524332303a20617070726f76652066726f6d20746865207a65726f206164646044820152637265737360e01b60648201526084016105c4565b6001600160a01b03821661073d5760405162461bcd60e51b815260206004820152602260248201527f45524332303a20617070726f766520746f20746865207a65726f206164647265604482015261737360f01b60648201526084016105c4565b6001600160a01b0383811660008181526001602090815260408083209487168084529482529182902085905590518481527f8c5be1e5ebec7d5bd14f71427d1e84f3dd0314c0f7b2291e5b200ac8c7c3b92591015b60405180910390a3505050565b60006107ab848461064f565b905060001981146104b757818110156108065760405162461bcd60e51b815260206004820152601d60248201527f45524332303a20696e73756666696369656e7420616c6c6f77616e636500000060448201526064016105c4565b6104b7848484840361067a565b6001600160a01b0383166108775760405162461bcd60e51b815260206004820152602560248201527f45524332303a207472616e736665722066726f6d20746865207a65726f206164604482015264647265737360d81b60648201526084016105c4565b6001600160a01b0382166108d95760405162461bcd60e51b815260206004820152602360248201527f45524332303a207472616e7366657220746f20746865207a65726f206164647260448201526265737360e81b60648201526084016105c4565b6001600160a01b038316600090815260208190526040902054818110156109515760405162461bcd60e51b815260206004820152602660248201527f45524332303a207472616e7366657220616d6f756e7420657863656564732062604482015265616c616e636560d01b60648201526084016105c4565b6001600160a01b03848116600081815260208181526040808320878703905593871680835291849020805487019055925185815290927fddf252ad1be2c89b69c2b068fc378daa952ba7f163c4a11628f55a4df523b3ef910160405180910390a36104b7565b6001600160a01b038216610a175760405162461bcd60e51b815260206004820152602160248201527f45524332303a206275726e2066726f6d20746865207a65726f206164647265736044820152607360f81b60648201526084016105c4565b6001600160a01b03821660009081526020819052604090205481811015610a8b5760405162461bcd60e51b815260206004820152602260248201527f45524332303a206275726e20616d6f756e7420657863656564732062616c616e604482015261636560f01b60648201526084016105c4565b6001600160a01b0383166000818152602081815260408083208686039055600280548790039055518581529192917fddf252ad1be2c89b69c2b068fc378daa952ba7f163c4a11628f55a4df523b3ef9101610792565b6001600160a01b038216610b375760405162461bcd60e51b815260206004820152601f60248201527f45524332303a206d696e7420746f20746865207a65726f20616464726573730060448201526064016105c4565b8060026000828254610b499190610dd3565b90915550506001600160a01b038216600081815260208181526040808320805486019055518481527fddf252ad1be2c89b69c2b068fc378daa952ba7f163c4a11628f55a4df523b3ef910160405180910390a35050565b600060208284031215610bb257600080fd5b81356001600160e01b031981168114610bca57600080fd5b9392505050565b600060208083528351808285015260005b81811015610bfe57858101830151858201604001528201610be2565b506000604082860101526040601f19601f8301168501019250505092915050565b80356001600160a01b0381168114610c3657600080fd5b919050565b60008060408385031215610c4e57600080fd5b610c5783610c1f565b946020939093013593505050565b600080600060608486031215610c7a57600080fd5b610c8384610c1f565b9250610c9160208501610c1f565b9150604084013590509250925092565b60008060408385031215610cb457600080fd5b82359150610cc460208401610c1f565b90509250929050565b60008060008060608587031215610ce357600080fd5b610cec85610c1f565b935060208501359250604085013567ffffffffffffffff80821115610d1057600080fd5b818701915087601f830112610d2457600080fd5b813581811115610d3357600080fd5b886020828501011115610d4557600080fd5b95989497505060200194505050565b600060208284031215610d6657600080fd5b610bca82610c1f565b60008060408385031215610d8257600080fd5b610d8b83610c1f565b9150610cc460208401610c1f565b600181811c90821680610dad57607f821691505b602082108103610dcd57634e487b7160e01b600052602260045260246000fd5b50919050565b808201808211156102c957634e487b7160e01b600052601160045260246000fdfea2646970667358221220af23c63a9eb5592e249442fb2156ae6caddee1e119a1879a984323b1cd79e17664736f6c63430008110033",
    "linkReferences": {}
  },
  "methodIdentifiers": {
    "allowance(address,address)": "dd62ed3e",
    "approve(address,uint256)": "095ea7b3",
    "balanceOf(address)": "70a08231",
    "burn(address,uint256,bytes)": "44d17187",
    "decimals()": "313ce567",
    "decreaseAllowance(address,uint256)": "a457c2d7",
    "grantRole(bytes32,address)": "2f2ff15d",
    "hasRole(bytes32,address)": "91d14854",
    "increaseAllowance(address,uint256)": "39509351",
    "mint(address,uint256,bytes)": "94d008ef",
    "name()": "06fdde03",
    "revokeRole(bytes32,address)": "d547741f",
    "supportsInterface(bytes4)": "01ffc9a7",
    "symbol()": "95d89b41",
    "totalSupply()": "18160ddd",
    "transfer(address,uint256)": "a9059cbb",
    "transferFrom(address,address,uint256)": "23b872dd"
  },
  "id": 31
}